:100000000C942A000C94D0000C9445000C944500EC
:100010000C9445000C9445000C9445000C9445004C
:100020000C9445000C9445000C9445000C9445003C
:100030000C9445000C9429030C9456030C94450031
:100040000C9445000C9445000C9445000C9445001C
:100050000C94450011241FBECFE5D8E0DEBFCDBF14
:1000600011E0A0E0B1E0E8E6F8E002C005900D92F2
:10007000A833B107D9F712E0A8E3B1E001C01D929F
:10008000AD32B107E1F70C946D000C940000AEE1C5
:10009000B0E0EDE4F0E00C940D04DE011196E0E038
:1000A000F1E08EE101900D928150E1F768E08EE180
:1000B00091E00E947E036DE1CE0101960E948402D0
:1000C0000E9411038823E1F765E087E291E00E9436
:1000D0007E03E2E06E960C942904CFE5D8E0DEBF03
:1000E000CDBF11BA78940E94AC030E94500165E024
:1000F0008DE291E00E947E0380E296E00E94AD01D5
:1001000044E061E0842F0E948E0180E09BE40E9425
:10011000BD0167E080E00E94E20164E083E391E0DA
:100120000E947E030E944700A8EAB1E6C0E0D0E04A
:1001300023E6CD010197F1F7215027FFFACFEDCF4C
:100140009C01862F9927582F4427E1E2F0E167E0D0
:10015000C90184279527220F331F97FF02C02E273E
:100160003F27440F551F615067FFF2CFC901089523
:1001700020E030E0C4984FE097FF02C0C59A01C06C
:10018000C598220F331FB6992160C79A880F991F0F
:100190000000C798415047FFEFCFC49AC9010895A6
:1001A0001F920F920FB60F9211240F931F932F934C
:1001B0003F934F935F936F937F938F939F93AF93EF
:1001C000BF93EF93FF938091390180FF33C08091FB
:1001D0003801843680F480913801082F1127065C9D
:1001E0001E4F8F5F8093380180E090EB0E94B80033
:1001F000F801808309C088E092E80E94B8008091ED
:1002000039018E7F8093390180913801282F33275F
:1002100080913A01992703962817390774F188E0ED
:1002200092E80E94B800809139018E7F84608093AB
:10023000390123C081FF1DC080913801E82FFF27BD
:10024000E65CFE4F80819927986B0E94B8008091F0
:100250003801882341F4809139018D7F80933901E1
:1002600088E092E808C0809138018150809338017D
:1002700004C080E090E00E94B800FF91EF91BF9130
:10028000AF919F918F917F916F915F914F913F912E
:100290002F911F910F910F900FBE0F901F901895E7
:1002A000CF93DF9387B3806B87BBBE98C49AA8EACD
:1002B000B1E6C0E0D0E029E0CD010197F1F721508F
:1002C00027FFFACF80EE90EC0E94B80087ED90E80F
:1002D0000E94B8008BEA92EC0E94B80081E89AEC88
:1002E0000E94B80080E090EE0E94B80080E098EC98
:1002F0000E94B80087EF94EC0E94B80080E090E084
:100300000E94B80080913901887F809339018A98D2
:100310008BB780648BBFDF91CF910895282F33274F
:100320002770307085E0220F331F8A95E1F7862F02
:10033000992783709070B3E0880F991FBA95E1F701
:10034000282B392B842F992787709070282B392BD5
:10035000C90194690E94B80008958036910518F487
:1003600080E690E006C02FE08034920710F08FE323
:100370009FE0906A0E94B800089522E087399207B2
:1003800000F19C01442755278851954170F460E69F
:1003900078EA80E090E00E94E203DA01C901019767
:1003A0008068966C0E94B80008956CEF72E485E056
:1003B00090E00E94C003DA01C9010197966C0E9487
:1003C000B8000895282F332727703070862F99277B
:1003D0008F70907044E0880F991F4A95E1F7282BA1
:1003E000392BC90198690E94B8000895CF93809174
:1003F000390182FF03C081E090E021C081FF03C08A
:1004000082E090E01CC0C82FC17080FF03C083E071
:1004100090E015C088EC92E80E94B80081E89AEC60
:100420000E94B80083E89AEC0E94B800C09338019B
:100430008091390181608093390180E090E0CF9113
:1004400008950F931F93CF938C0140E050E080916B
:100450003901282F217080FF03C08FEF90E050C03A
:1004600082FD03C08EEF90E04BC0C22F80913A0115
:1004700099270196481759079CF4EC2FFF27E65C53
:10048000FE4F6081CA010E94A000AC01CF5F2C2FFB
:10049000332780913A0199270196281739076CF381
:1004A000EC2FFF27E65CFE4F8081282F3327CF5F9C
:1004B000EC2FFF27E65CFE4F80819927982F882735
:1004C000282B392B2417350719F080E090E018C04D
:1004D000809139018B7F8093390190E080913A01BE
:1004E000981758F4E92FFF27D801AE0FBF1FE65C1D
:1004F000FE4F81818C939F5FF1CF80913A019927C4
:10050000CF911F910F910895EF92FF920F931F9338
:10051000CF938C01F62E8091390181FF03C082E0D8
:1005200090E079C0E1E0EE2EE82280FF03C083E096
:1005300090E071C094E6961718F484E090E06BC0E8
:10054000826080933901A9E0FA0EF0923801B7EF8A
:10055000FB0EC0913801EC2FFF27E65CFE4F8AEAC4
:100560008083C150EC2FFF27E65CFE4F8083C15093
:10057000EC2FFF27E65CFE4F8083C150EC2FFF2756
:10058000E65CFE4F8DE28083C150EC2FFF27E65CD6
:10059000FE4F84ED8083C150EC2FFF27E65CFE4FB9
:1005A000F082C1506F2D80E090E00E94A0009C017D
:1005B000EF1488F4EC2FFF27E65CFE4FD8018C91F6
:1005C0008083C150F80161918F01C9010E94A00090
:1005D0009C01E394EDCFEC2FFF27E65CFE4F2083D8
:1005E000C150EC2FFF27E65CFE4F832F99278083B5
:1005F000C150EC2FFF27E65CFE4F8AEA8083C15092
:10060000EC2FFF27E65CFE4F808388E392E80E9490
:10061000B80080E090E0CF911F910F91FF90EF9094
:1006200008958091390181FF03C08FEF90E0089514
:1006300080E090E0089580913901887F80933901AE
:1006400088E092E80E94B80080E090E00E94B80044
:1006500008951F920F920FB60F9211248F93EF936C
:10066000FF938091A901803210F01092A90180912E
:10067000A901E82FFF27E451FE4F8CB180838091C0
:10068000A901E82FFF27E451FE4F8F5F8093A90156
:1006900080818A3019F481E08093EB01FF91EF9122
:1006A0008F910F900FBE0F901F9018951F920F9271
:1006B0000FB60F9211248F939F93EF93FF93809126
:1006C000EA01E82FFF27E35FFD4F8F5F90819CB920
:1006D0008F718093EA018091A80181508093A801D5
:1006E0008091A801882309F45598FF91EF919F917B
:1006F0008F910F900FBE0F901F9018959C01603244
:1007000018F082E090E008958091A801860F912D65
:10071000911D80971CF081E090E0089540E046171D
:1007200080F4D90180910C02E82FFF27E35FFD4F91
:100730009D9190838F5F8F7180930C024F5F46175E
:1007400088F3F8948091A801860F8093A801559AA8
:10075000789480E090E008958AB188698AB980B57C
:10076000866880BD10BC8FE189B91092EB011092B0
:10077000A90110920C021092EA011092A8010895AA
:10078000A1E21A2EAA1BBB1BFD010DC0AA1FBB1F95
:10079000EE1FFF1FA217B307E407F50720F0A21B07
:1007A000B30BE40BF50B661F771F881F991F1A9474
:1007B00069F760957095809590959B01AC01BD019E
:1007C000CF01089597FB092E05260ED057FD04D0C2
:1007D000D7DF0AD0001C38F450954095309521950C
:1007E0003F4F4F4F5F4F0895F6F790958095709566
:1007F00061957F4F8F4F9F4F08952F923F924F9259
:100800005F926F927F928F929F92AF92BF92CF92A0
:10081000DF92EF92FF920F931F93CF93DF93CDB7A9
:10082000DEB7CA1BDB0B0FB6F894DEBF0FBECDBF21
:1008300009942A88398848885F846E847D848C84F2
:100840009B84AA84B984C884DF80EE80FD800C81FB
:100850001B81AA81B981CE0FD11D0FB6F894DEBFDE
:080860000FBECDBFED010895AC
:1008680044696573206973742065696E2034333375
:100878004D487A2054657374202121210A0053744D
:100888006172742E2E2E00446F6E650A00496E69DF
:08089800740A00506B670A00AE
:00000001FF
