:100000000C942A000C947A010C9445000C94450041
:100010000C9445000C9445000C9445000C9445004C
:100020000C9445000C9445000C9445000C9445003C
:100030000C9445000C94B2000C94DF000C94450025
:100040000C9445000C9445000C9445000C9445001C
:100050000C94450011241FBECFE5D8E0DEBFCDBF14
:1000600011E0A0E0B1E0E4E9FEE002C005900D92ED
:10007000AE31B107D9F712E0AEE1B1E001C01D9297
:10008000A33DB107E1F70C9447000C940000CBEFBF
:10009000D7E0DEBFCDBF78940E9436010E94FA01FE
:1000A00065E080E091E00E94070180E296E00E9416
:1000B000570244E061E0842F0E94380280E09BE414
:1000C0000E94670266E080E00E948C020E94A0020B
:1000D00099279F938F9386E091E09F938F937E0162
:1000E0000894E11CF11CFF92EF920E94D3032DB7FC
:1000F0003EB72A5F3F4F0FB6F8943EBF0FBE2DBFED
:10010000682FC7010E94070183E3C82ED12CCC0EB3
:10011000DD1EC6010E94CB02182F8F3FA9F399273D
:100120009F938F9385E191E09F938F93FF92EF923E
:100130000E94D3032DB73EB72A5F3F4F0FB6F89406
:100140003EBF0FBE2DBF682FC7010E9407011123BC
:1001500009F4BCCF1E3F09F4B9CF612FC6010E943C
:100160000701B4CF1F920F920FB60F9211248F93F5
:10017000EF93FF938091200187FF02C0109220012E
:1001800080912001E82FFF27ED59FE4F8CB180832D
:1001900080912001E82FFF27ED59FE4F8F5F80935C
:1001A000200180818A3019F481E080936201FF91FF
:1001B000EF918F910F900FBE0F901F9018951F9287
:1001C0000F920FB60F9211248F939F93EF93FF938B
:1001D00080916101E82FFF27EC51FE4F8F5F9081E6
:1001E0009CB98F778093610180911F01815080932A
:1001F0001F0180911F01882309F45598FF91EF9109
:100200009F918F910F900FBE0F901F9018959C019A
:1002100067FF03C082E090E0089580911F01860F80
:10022000912D911D803891051CF081E090E008959A
:1002300040E0461780F4D9018091E301E82FFF27C1
:10024000EC51FE4F9D9190838F5F8F778093E301F8
:100250004F5F461788F3F89480911F01860F8093B3
:100260001F01559A789480E090E008958AB18869DA
:100270008AB980B5866880BD10BC8FE189B91092BB
:100280006201109220011092E3011092610110921C
:100290001F0108959C01862F9927582F4427E1E2DA
:1002A000F0E167E0C90184279527220F331F97FFEC
:1002B00002C02E273F27440F551F615067FFF2CF22
:1002C000C901089520E030E0C4984FE097FF02C0D4
:1002D000C59A01C0C598220F331FB6992160C79AED
:1002E000880F991F0000C798415047FFEFCFC49A6D
:1002F000C90108951F920F920FB60F9211240F9308
:100300001F932F933F934F935F936F937F938F939D
:100310009F93AF93BF93EF93FF938091640280FF0D
:1003200033C080911E01843680F480911E01082F15
:1003300011270B591D4F8F5F80931E0180E090EBBA
:100340000E946201F801808309C088E092E80E945F
:100350006201809164028E7F8093640280911E010D
:10036000282F33278091650299270396281739078C
:1003700074F188E092E80E946201809164028E7FAD
:1003800084608093640223C081FF1DC080911E01A0
:10039000E82FFF27EB59FD4F80819927986B0E942A
:1003A000620180911E01882341F4809164028D7F57
:1003B0008093640288E092E808C080911E01815019
:1003C00080931E0104C080E090E00E946201FF91D2
:1003D000EF91BF91AF919F918F917F916F915F91BD
:1003E0004F913F912F911F910F910F900FBE0F9042
:1003F0001F901895CF93DF9387B3806B87BBBE9810
:10040000C49AA8EAB1E6C0E0D0E029E0CD010197A6
:10041000F1F7215027FFFACF80EE90EC0E946201A5
:1004200087ED90E80E9462018BEA92EC0E946201E3
:1004300081E89AEC0E94620180E090EE0E946201E5
:1004400080E098EC0E94620187EF94EC0E946201C8
:1004500080E090E00E94620180916402887F809336
:1004600064028A988BB780648BBFDF91CF91089527
:10047000282F33272770307085E0220F331F8A958D
:10048000E1F7862F992783709070B3E0880F991F4A
:10049000BA95E1F7282B392B842F99278770907014
:1004A000282B392BC90194690E9462010895803676
:1004B000910518F480E690E006C02FE080349207A2
:1004C00010F08FE39FE0906A0E946201089522E09D
:1004D0008739920700F19C0144275527885195419F
:1004E00070F460E678EA80E090E00E942F07DA017D
:1004F000C90101978068966C0E94620108956CEFB3
:1005000072E485E090E00E940D07DA01C9010197CD
:10051000966C0E9462010895282F3327277030704F
:10052000862F99278F70907044E0880F991F4A9505
:10053000E1F7282B392BC90198690E9462010895BF
:10054000CF938091640282FF03C081E090E021C0DC
:1005500081FF03C082E090E01CC0C82FC17080FF03
:1005600003C083E090E015C088EC92E80E9462012D
:1005700081E89AEC0E94620183E89AEC0E94620191
:10058000C0931E018091640281608093640280E0C8
:1005900090E0CF9108950F931F93CF938C0140E08B
:1005A00050E080916402282F217080FF03C08FEFFC
:1005B00090E050C082FD03C08EEF90E04BC0C22F90
:1005C0008091650299270196481759079CF4EC2FF2
:1005D000FF27EB59FD4F6081CA010E944A01AC011F
:1005E000CF5F2C2F3327809165029927019628171A
:1005F00039076CF3EC2FFF27EB59FD4F8081282F33
:100600003327CF5FEC2FFF27EB59FD4F80819927D0
:10061000982F8827282B392B809164028B7F809319
:1006200064022417350719F080E090E013C090E0D1
:1006300080916502981758F4E92FFF27D801AE0F73
:10064000BF1FEB59FD4F81818C939F5FF1CF80914C
:1006500065029927CF911F910F910895EF92FF9214
:100660000F931F93CF938C01F62E8091640281FF2C
:1006700003C082E090E079C0E1E0EE2EE82280FF46
:1006800003C083E090E071C094E6961718F484E00C
:1006900090E06BC0826080936402A9E0FA0EF09251
:1006A0001E01B7EFFB0EC0911E01EC2FFF27EB5987
:1006B000FD4F8AEA8083C150EC2FFF27EB59FD4F95
:1006C0008083C150EC2FFF27EB59FD4F8083C15031
:1006D000EC2FFF27EB59FD4F8DE28083C150EC2FAB
:1006E000FF27EB59FD4F84ED8083C150EC2FFF278E
:1006F000EB59FD4FF082C1506F2D80E090E00E94D9
:100700004A019C01EF1488F4EC2FFF27EB59FD4FB1
:10071000D8018C918083C150F80161918F01C9018A
:100720000E944A019C01E394EDCFEC2FFF27EB5987
:10073000FD4F2083C150EC2FFF27EB59FD4F832F36
:1007400099278083C150EC2FFF27EB59FD4F8AEA90
:100750008083C150EC2FFF27EB59FD4F808388E346
:1007600092E80E94620180E090E0CF911F910F918A
:10077000FF90EF9008958091640281FF03C08FEF96
:1007800090E0089580E090E0089580916402887F71
:100790008093640288E092E80E94620180E090E029
:1007A0000E94620108950F931F93CF93DF93CDB7FB
:1007B000DEB72E970FB6F894DEBF0FBECDBF0D8902
:1007C0001E892F89388D86E08C831A8309838FEFE9
:1007D0009FE79E838D83AE01475E5F4FB901CE01D7
:1007E00001960E9404042F813885020F131FF8011F
:1007F00010822E960FB6F894DEBF0FBECDBFDF91EC
:10080000CF911F910F9108952F923F924F925F9237
:100810006F927F928F929F92AF92BF92CF92DF9210
:10082000EF92FF920F931F93CF93DF93CDB7DEB775
:1008300062970FB6F894DEBF0FBECDBFEE24FF2443
:1008400087011C017E876D872A01CC24DD24FC01F1
:10085000D782C682838181FD68C28FEF9FEF78C205
:100860008D859E8501969E878D87C0FE4BC28F85A4
:1008700080538A30D0F49F85903339F4662029F470
:10088000C3FC03C0E0E0F1E08DC08AE0689E602C0C
:100890001124FF856F0E20ED620E67FE02C05FE738
:1008A000652EC3FC42C2762C40C2C3FE04C0662043
:1008B00011F441E0642EEF858E2F992787FD9095E6
:1008C000883691058CF5853691050CF06EC0833520
:1008D000910509F493C084359105CCF48B329105D0
:1008E00009F449C08C3291054CF48032910509F429
:1008F00046C08332910509F44AC0FEC18D3291058C
:1009000009F440C08E32910509F444C0F5C1833624
:10091000910509F450C0843691050CF08AC08835E1
:10092000910509F4BCC0E8C18037910509F4B1C054
:100930008137910584F48C36910591F18D369105BE
:100940002CF48936910509F474C0D6C18F3691050F
:1009500009F49CC0D1C18537910509F4A2C086373E
:10096000910524F48337910571F1C6C1883791054B
:1009700009F495C0C1C180E190E0C82AD92AE0E21B
:10098000F0E010C080E890E0C82AD92ACEC1E0E4A7
:10099000F0E008C088E090E0C82AD92A6624C5C1E2
:1009A000E4E0F0E0CE2ADF2AC0C13FE3E32E7A94F0
:1009B000F3E6FF873CC1F20182E090E0480E591E49
:1009C000E0807A9434C1F20182E090E0480E591E32
:1009D000A081B1817D01C3FE09C0862D992787FDC5
:1009E0009095BC01CD010E94D5061FC0FD0101906C
:1009F0000020E9F73197EA1BE88B18C0F20182E08A
:100A000090E0480E591E0190F081E02D7F01C3FE59
:100A100009C0862D992787FD9095BC01CF010E94C2
:100A2000CA0603C0CF010E94C106888B9889791A33
:100A3000FEC0C2FE0AC0F20184E090E0480E591EDA
:100A400020813181428153810CC0F20182E090E02B
:100A5000480E591E808191819C01442737FD4095A5
:100A6000542F79018A0157FF0CC0E2E0F0E0CE2A52
:100A7000DF2A10950095F094E094E11CF11C011D13
:100A8000111D8FEB9FEFC822D92227C098E0988BC9
:100A900008C0E0E4F0E0CE2ADF2AF8E7FF8720E193
:100AA000288BC2FE0AC0F20184E090E0480E591E75
:100AB00020813181428153810AC0F20182E090E0BD
:100AC000480E591E808191819C0144275527790148
:100AD0008A01EFECFFEFCE22DF22CE0101969A8B46
:100AE000898B9889892E9924AA24BB24C801B7012F
:100AF000A50194010E940D07DC01CB01E989FA8967
:100B000080838A3024F0FF858F0F815201C0805D81
:100B1000E989FA898193FA8BE98BC801B701A501AC
:100B200094010E940D0779018A01211531054105C3
:100B30005105E1F6E98881E090E08C0F9D1FE81AED
:100B4000C60182739070892B09F07A94C6FE0DC09D
:100B5000872D992787FD9095E889E03121F42EEFC4
:100B6000722E780E02C0782E7A94C3FE0FC0262D06
:100B7000332727FD30958E2D9927821793072CF068
:100B800087EF9FEFC822D92201C06E18C3FE02C0B2
:100B9000761801C07E18C60180789170892B51F4B7
:100BA000872D7A94181634F4B10180E290E00E9407
:100BB000E006F6CFC1FE04C0B1018DE290E00BC0AB
:100BC000C4FE04C0B1018BE290E005C0C5FE05C0C3
:100BD000B10180E290E00E94E006C6FE10C0B101C3
:100BE00080E390E00E94E0069889903141F4B101E1
:100BF000EF858E2F992787FD90950E94E006D0FE05
:100C00000AC0872D7A94181634F4B10180E390E07D
:100C10000E94E006F6CFC3FE0AC0862D6A9418161D
:100C200034F4B10180E390E00E94E006F6CF90E852
:100C3000B92EBC2051F4872D7A94181634F4B101E2
:100C400080E290E00E94E006F6CFFF85F33641F4A3
:100C50008E2DB101992787FD90950E94E00640C036
:100C60002F852337B1F488898150888B8F3FC1F15C
:100C7000F70180810894E11CF11CB101992787FDDF
:100C800090950E94E00698899150988B9F3F81F73C
:100C900027C0EF85E33579F4F889F150F88BFF3FF1
:100CA000F9F0F7018491B10199270E94E0060894B8
:100CB000E11CF11CF1CF6E010894C11CD11C898983
:100CC0009A898C159D0561F0E989FA898291FA8BE0
:100CD000E98BB101992787FD90950E94E006EFCF3F
:100CE000BB2069F0872D7A9418164CF4B10180E28C
:100CF00090E00E94E006F6CFB1010E94E006CC240D
:100D0000DD2413C09F85953241F481E0C82ED12C9B
:100D10006624762CEAE0E88B08C0B101FF858F2FAE
:100D2000992787FD90950E94E006F101838183FF5A
:100D300004C0ED85FE85F49103C0ED85FE85F0814C
:100D4000FF872F85222309F08BCDF10186819781C2
:100D500062960FB6F894DEBF0FBECDBFDF91CF9184
:100D60001F910F91FF90EF90DF90CF90BF90AF90C9
:100D70009F908F907F906F905F904F903F902F90BB
:100D80000895FC0105900020E9F7809590958E0F5D
:100D90009F1F0895FC010590615070400110D8F725
:100DA000809590958E0F9F1F0895FC0161507040B3
:100DB00001900110D8F7809590958E0F9F1F089590
:100DC0000F931F93CF93DF938C01EB018B819927B6
:100DD00081FF1CC082FF0DC02E813F818C819D81CF
:100DE0002817390764F4E881F9810193F983E883CE
:100DF00006C0E885F985802F0995892B39F48E8105
:100E00009F8101969F838E83C80102C08FEF9FEF61
:100E1000DF91CF911F910F910895A1E21A2EAA1B85
:100E2000BB1BFD010DC0AA1FBB1FEE1FFF1FA2179A
:100E3000B307E407F50720F0A21BB30BE40BF50B97
:100E4000661F771F881F991F1A9469F76095709520
:100E5000809590959B01AC01BD01CF01089597FB52
:100E6000092E05260ED057FD04D0D7DF0AD0001C6E
:100E700038F450954095309521953F4F4F4F5F4F37
:100E80000895F6F790958095709561957F4F8F4FF7
:040E90009F4F0895D3
:100E9400496E69740A0053746172742076616C3A05
:0E0EA4002025750A007265743A2025750A0033
:00000001FF
