:100000000C942A000C94F3050C9447000C944700C0
:100010000C9447000C9447000C9447000C94470044
:100020000C9447000C9447000C9447000C94DE019C
:100030000C94E8040C9447000C9447000C9447007F
:100040000C9447000C9447000C9447000C94470014
:100050000C94470011241FBECFE5D8E0DEBFCDBF12
:1000600010E0A0E6B0E0E2E9FDE102C005900D92EB
:10007000AA3CB107D9F712E0AAECB0E001C01D928A
:10008000A332B107E1F70E94EE010C94C70E0C9465
:100090000000CF93DF93CDB7DEB780E490E0FC01A2
:1000A000108289E290E02CE0FC0120838AE290E05B
:1000B0002AE230E0F90120812860FC01208380E4FD
:1000C00090E026E8FC012083DF91CF910895CF9343
:1000D000DF930F92CDB7DEB7898381E390E021E310
:1000E00030E0F90120812064FC012083898188238C
:1000F00051F082E390E022E330E0F90120812064B6
:10010000FC01208309C082E390E022E330E0F901A2
:1001100020812F7BFC0120830F90DF91CF910895E8
:10012000CF93DF930F92CDB7DEB7898381E390E061
:1001300021E330E0F90120812062FC0120838981E4
:10014000882351F082E390E022E330E0F90120813E
:100150002062FC01208309C082E390E022E330E0CA
:10016000F90120812F7DFC0120830F90DF91CF9139
:100170000895AF92BF92CF92DF92EF920F931F93A9
:10018000CF93DF93CDB7DEB7C854D0400FB6F89405
:10019000DEBF0FBECDBF8CE890E0988F8F8B83E1E0
:1001A000898FCE01C39643EC55EF68ED73E400EB05
:1001B00014E020E030E0EE24CC24DD24C394AA2413
:1001C000BB240E94D00BCE0101969E012D5C3F4FB7
:1001D00046E1F90100802F5F3F4FFC01008201964C
:1001E00041504423B1F719AA18AA1AAACE01C396FE
:1001F00043EC55EF68ED73E400EB14E020E030E0F1
:10020000EE24CC24DD24AA24BB24A3940E94D00B8A
:10021000CE014A969E012D5C3F4F46E1F9010080D8
:100220002F5F3F4FFC010082019641504423B1F7FC
:10023000CE0101960E947609C85BDF4F0FB6F89495
:10024000DEBF0FBECDBFDF91CF911F910F91EF9019
:10025000DF90CF90BF90AF900895AF92BF92CF92B2
:10026000DF92EF920F931F93CF93DF93CDB7DEB75B
:10027000AF970FB6F894DEBF0FBECDBF188E1F8AA2
:10028000198ECE014A9643EC55EF68ED73E400EB0E
:1002900014E020E030E0EE24CC24DD24AA24BB24AA
:1002A0000E94D00BCE0101969E01265E3F4F46E193
:1002B000F90100802F5F3F4FFC0100820196415001
:1002C0004423B1F78C818E7F8C838C818D7F8C83CE
:1002D0008C818B7F8C838C81877F8C838C818F7EBC
:1002E0008C838C818F7D8C838C818F7B8C838C81A4
:1002F00080688C83CE0101960E947609AF960FB676
:10030000F894DEBF0FBECDBFDF91CF911F910F914B
:10031000EF90DF90CF90BF90AF900895CF93DF9391
:100320000F92CDB7DEB789838CE290E02981FC0182
:1003300020838091F3018F5F8093F3018091F3011B
:10034000882F90E08F509F4F2981FC01208380915E
:10035000F301823178F11092F3018BE590E02BE507
:1003600030E0F90120812F7BFC01208320E630E082
:1003700082E0B9010E94B60688E58093F1001092F0
:10038000030181EF90E02FE930E0B9010E94AD0E4A
:10039000009729F082E0809317020E94B90081EF54
:1003A00090E027EA30E0B9010E94AD0E009711F00D
:1003B000109217020F90DF91CF9108951F920F9224
:1003C0000FB60F921124CF93DF93CDB7DEB7DF9135
:1003D000CF910F900FBE0F901F901895AF92BF92C4
:1003E000CF92DF92EF920F931F93CF93DF93CDB70E
:1003F000DEB7CE54D0400FB6F894DEBF0FBECDBFEF
:100400001092F30180E00E9490000E94E20C0E9492
:1004100049008CE290E021E4FC01208380E09EEF23
:100420000E94F4039E838D8319821A821B821C8290
:100430000EC081E00E94670089819A81AB81BC81F6
:100440000196A11DB11D89839A83AB83BC838981E9
:100450009A81AB81BC81883BFBE09F07F0E0AF074E
:10046000F0E0BF0730F380E00E9467008EE290E08A
:10047000FC01108281E390E021E330E0F90120816A
:100480002068FC01208382E390E022E330E0F90160
:1004900020812F77FC0120838EE891E090931F024A
:1004A00080931E028BE09DE09093E8008093E7002C
:1004B00019821A821B821C820EC081E00E94670092
:1004C00089819A81AB81BC810196A11DB11D89836F
:1004D0009A83AB83BC8389819A81AB81BC81883B41
:1004E000FBE09F07F0E0AF07F0E0BF0730F38AE7DB
:1004F00090E09E8F8D8F80E18F8FCE01C99643EC67
:1005000055EF68ED73E400EB14E020E030E0EE24FA
:10051000CC24DD24C394AA24BB240E94D00BCE019A
:1005200007969E01275C3F4F46E1F90100802F5F4F
:100530003F4FFC010082019641504423B1F71FAAAE
:100540001EAA18AECE01C99643EC55EF68ED73E4D0
:1005500000EB14E020E030E0EE24CC24DD24AA24DB
:10056000BB24A3940E94D00BCE0180969E01275CF1
:100570003F4F46E1F90100802F5F3F4FFC010082B1
:10058000019641504423B1F780E00E9467008BE35D
:1005900090E02FEFFC0120838AE390E0FC011082C1
:1005A00010921702CE0107960E94760901C0000042
:1005B00089E390E0FC018081882F90E08170907049
:1005C000009719F481E0809317028091170281301F
:1005D00009F042C0CE0107960E94760919821A825C
:1005E0001B821C820EC081E00E94670089819A8173
:1005F000AB81BC810196A11DB11D89839A83AB8318
:10060000BC8389819A81AB81BC81803DF7E09F07E3
:10061000F0E0AF07F0E0BF0730F319821A821B82C7
:100620001C820EC080E00E94670089819A81AB81A4
:10063000BC810196A11DB11D89839A83AB83BC83C4
:1006400089819A81AB81BC81803D27E0920720E0BF
:10065000A20720E0B20730F380911702823009F040
:10066000A6CF81E390E021E330E0F901208120680A
:10067000FC01208319821A821B821C8214C082E32F
:1006800090E022E330E0F90120812068FC01208322
:1006900089819A81AB81BC810196A11DB11D89839D
:1006A0009A83AB83BC8389819A81AB81BC818C3D69
:1006B000F5E09F07F0E0AF07F0E0BF0700F382E34B
:1006C00090E022E330E0F90120812F77FC012083C4
:1006D000109217026CCFCF93DF93CDB7DEB787E3CD
:1006E00090E020EBFC0120838DE290E020EDFC0106
:1006F0002083DF91CF910895CF93DF930F92CDB7F1
:10070000DEB789838FE290E02981FC0120830F907E
:10071000DF91CF910895CF93DF9300D0CDB7DEB7AF
:100720009A83898388E390E028E330E0F90120810F
:100730002F7EFC01208389819A819093EF00809322
:10074000EE008091EE009091EF00892F99270E9492
:100750007C030E946B030F900F90DF91CF9108955F
:10076000CF93DF93CDB7DEB780E090E00E948B039C
:10077000DF91CF910895CF93DF9300D0CDB7DEB74F
:100780009A83898381E0809318021092F501898110
:100790009A819093EC008093EB000E94B0030F903D
:1007A0000F90DF91CF910895CF93DF930F92CDB744
:1007B000DEB789838981882F90E092680E94BB030D
:1007C0000F90DF91CF910895CF93DF930F92CDB724
:1007D000DEB789838981882F90E0986B0E948B0314
:1007E0000F90DF91CF910895CF93DF9300D0CDB7D5
:1007F000DEB79A83898381E08093180289819A8188
:100800000E94BB0300008091F5018630E1F78091E2
:10081000EA00882F90E0382F22278091D000882F7F
:1008200090E0822B932B0F900F90DF91CF91089542
:10083000CF93DF93CDB7DEB78091CA00882309F04C
:100840004EC080911A0290911B02009709F455C086
:1008500080911A0290911B02499690931B028093FB
:100860001A0280911A0290911B02FC0186899789D5
:100870009093F2018093F10180911A0290911B02F2
:10088000FC01808D8093CA0020911A0230911B02D6
:100890008DB79EB746970FB6F8949EBF0FBE8DBF1B
:1008A0008DB79EB7019646E1F90100802F5F3F4F5B
:1008B000FC010082019641504423B1F70E94D50605
:1008C0002DB73EB72A5E3F4F0FB6F8943EBF0FBE1E
:1008D0002DBF9C0180E1B9010E94B6060EC0809137
:1008E000F1019091F201FC01208101969093F201B7
:1008F0008093F101822F0E94E4038091CA0081500D
:100900008093CA00DF91CF910895CF93DF93CDB745
:10091000DEB780911602882309F043C01092ED00E3
:1009200084E08093F50180911A0290911B02009758
:1009300009F446C080911A0290911B02FC0186893D
:100940009789009709F181E080931D028BE590E083
:100950002BE530E0F90120812064FC01208383E055
:100960008093E9001092F5018091CE009091CF0024
:10097000FC012081318102969093CF008093CE00BC
:10098000C9010E948B031CC08091E7009091E80090
:100990000097B1F08091E7009091E800FC01099583
:1009A0000FC08091CE009091CF00FC012081318159
:1009B00002969093CF008093CE00C9010E948B03D2
:1009C00080911602815080931602DF91CF91089595
:1009D0001F920F920FB60F9211242F933F934F93B4
:1009E0005F936F937F938F939F93AF93BF93EF9397
:1009F000FF93CF93DF93CDB7DEB78091F501882FBA
:100A000090E0817090708823C9F08FE290E0FC0143
:100A100080818093D00088E390E028E330E0F90102
:100A200020812061FC0120838DE290E020E5FC0123
:100A300020838091F501853099F039C08FE290E0F4
:100A4000FC0180818093EA008091EE009091EF009C
:100A50000E947C038091F5018F5F8093F501B0C007
:100A60001092180286E08093F5018BE590E02BE56B
:100A700030E0F90120812064FC0120838091E900AD
:100A8000823009F09DC08091EE009091EF00F0EB74
:100A900080309F0709F094C020911E0230911F0200
:100AA0008FE290E0FC018081F901099589C0809175
:100AB000F501833009F06BC08091EA00882F90E047
:100AC000382F22278091D000882F90E0822B932B03
:100AD0009093CC008093CB0080911802882361F022
:100AE000109218028091EB009091EC000E948B0311
:100AF00084E08093F50164C08091ED00882329F0A3
:100B00001092F5010E9485045BC08091E90083305A
:100B1000D1F48091CB009091CC0099232CF41092C9
:100B2000F5010E9418044CC0109218028BE590E069
:100B30002BE530E0F90120812064FC01208384E072
:100B40008093F5013DC08091E900823071F480917D
:100B5000CB009091CC00992324F480E090EB0E948C
:100B60008B0384E08093F5012BC08AEA0E94E403A2
:100B70008091CB009091CC0099231CF41092F50148
:100B80001FC01092180284E08093F50119C0809173
:100B9000F5018130A9F48091EA00882F90E0382F88
:100BA00022278091D000882F90E0822B932B909366
:100BB0002102809320020E94B00382E08093F5011D
:100BC000DF91CF91FF91EF91BF91AF919F918F9165
:100BD0007F916F915F914F913F912F910F900FBE39
:100BE0000F901F9018951F920F920FB60F9211241D
:100BF0002F933F934F935F936F937F938F939F9325
:100C0000AF93BF93EF93FF93CF93DF93CDB7DEB74F
:100C100082E08093F5018BE590E02BE530E0F9016F
:100C200020812F7BFC0120838AE590E020E4FC01F9
:100C300020830E94B003DF91CF91FF91EF91BF918C
:100C4000AF919F918F917F916F915F914F913F9164
:100C50002F910F900FBE0F901F901895CF93DF9399
:100C6000CDB7DEB705C08091F0008F5F8093F000B4
:100C70008091F5018230B9F7DF91CF910895CF933C
:100C8000DF9300D0CDB7DEB79A83898389819A81BB
:100C90000E948B030E942E068FE290E0FC0180816F
:100CA0008093D0008091EA00882F90E0382F22278F
:100CB0008091D000882F90E0822B932B0F900F9083
:100CC000DF91CF910895CF93DF9300D0CDB7DEB7FA
:100CD0009A83898389819A818036910528F480E6F8
:100CE00090E09A8389830AC089819A812FE08034B9
:100CF000920720F08FE39FE09A83898389819A810C
:100D0000906A0E94F4030F900F90DF91CF910895A5
:100D1000CF93DF9300D00F92CDB7DEB789837B836B
:100D20006A8381E080931D028BE590E02BE530E043
:100D3000F90120812064FC01208383E08093E90095
:100D40008A819B819093F2018093F1018981809344
:100D5000CA001092F50180911C0280620E94D403A7
:100D60000F900F900F90DF91CF910895CF93DF9365
:100D700000D00F92CDB7DEB789837B836A8381E091
:100D80008093ED008A819B819093CF008093CE0069
:100D90008981809316021092F5010E94B0030F9092
:100DA0000F900F90DF91CF910895CF93DF93CDB740
:100DB000DEB78E8186958170882F90E09695982F6A
:100DC0008827979587959C018E818170882F90E068
:100DD0000024969587950794969587950794982F64
:100DE000802D282B392B8D81882F90E0829592952C
:100DF000907F9827807F9827282B392B8F81882FE9
:100E000090E0822B932B90689093F7018093F601EA
:100E100089858370882F90E0880F991F829592951D
:100E2000907F9827807F98279C0189858695869555
:100E30008170882F90E082959295907F9827807F8F
:100E40009827282B392B89858695869586958170DC
:100E5000882F90E0880F991F880F991F880F991F7E
:100E6000282B392B898582958F708170882F90E08F
:100E7000880F991F880F991F282B392B89858295F8
:100E8000869587708370882F90E0822B932B9C6CC3
:100E90009093F9018093F8018985881F8827881F1E
:100EA0009A859370990F892B882F90E0880F991F4E
:100EB00082959295907F9827807F98279C018A85BC
:100EC000869586958F71882F90E0822B932B906C5E
:100ED0009093FB018093FA012A85221F2227221F6B
:100EE0003B853F77330F232B822F2B85221F222711
:100EF000221F3C853770330F232B922F906A9093DB
:100F0000FD018093FC018C85869586958695817080
:100F1000882F90E09695982F8827979587959C0124
:100F20008C8582958F709D8597709295907F892B87
:100F3000882F90E0822B932B966C9093FF018093E7
:100F4000FE018E85882F90E0982F8827990F990FA2
:100F50009C018F85882F90E0982F8827282B392B8C
:100F600088898770882F90E0880F991F82959295C5
:100F7000907F9827807F9827282B392B8889869502
:100F8000869586958370882F90E0880F991F880F2B
:100F9000991F880F991F282B392B88898295869550
:100FA0008770882F90E0822B932B90699093010299
:100FB000809300028989882F90E09E6C90930302B1
:100FC000809302028A898170882F90E09695982FED
:100FD0008827979587959C018A8986958170882FA7
:100FE00090E00024969587950794969587950794A9
:100FF000982F802D282B392B8A898695869581708C
:10100000882F90E082959295907F9827807F9827EF
:10101000282B392B8A898695869586958770882F07
:1010200090E0822B932B8862926C909305028093C0
:1010300004028C89882F90E0002496958795079468
:10104000969587950794982F802D9C018D898370A4
:10105000882F90E082959295907F9827807F98279F
:10106000282B392B8D89869586958170882F90E065
:10107000880F991F880F991F880F991F282B392BCC
:101080008D898695869586958170882F90E0880F4A
:10109000991F880F991F282B392B8D8982958F7066
:1010A0008170882F90E0880F991F282B392B8D890C
:1010B0008295869587708170882F90E0822B932B84
:1010C000946C90930702809306028E89882F90E09B
:1010D000982F88279C018F898F70882F90E08295A8
:1010E0009295907F9827807F9827282B392B8F897E
:1010F00082958F708770882F90E0822B932B986950
:101100009093090280930802898D8F71882F90E057
:10111000982F88279C01888D882F90E0822B932B15
:10112000906E90930B0280930A02898D829586952A
:10113000869583709A8D9F71990F990F892B882FAF
:1011400090E0880F991F9C01898D82958695877004
:101150008170882F90E0822B932B986C90930D02D6
:1011600080930C028A8982958695869583709B89E7
:101170009370990F990F892B882F90E08295929503
:10118000907F9827807F98279C018B8986958695EC
:101190008170882F90E0880F991F880F991F880F02
:1011A000991F282B392B8B8986958695869581707A
:1011B000882F90E0880F991F880F991F282B392BB3
:1011C0008B8982958F708170882F90E0880F991F8E
:1011D000282B392B8B898295869587708170882F73
:1011E00090E0822B932B9A6C90930F0280930E02C7
:1011F00088858170882F90E09695982F88279795FD
:1012000087959C01888586958170882F90E00024C1
:10121000969587950794969587950794982F802D96
:10122000282B392B8885869586958170882F90E0AC
:10123000880F991F82959295907F9827807F982795
:10124000282B392B88858695869586958170882FE1
:1012500090E082959295907F9827807F9827282B01
:10126000392B888582958F708170882F90E0880F48
:10127000991F880F991F880F991F282B392B888554
:101280008295869587708170882F90E0880F991FCE
:10129000880F991F282B392B8885829586958695EE
:1012A00083708170882F90E0880F991F282B392B2D
:1012B0008885881F8827881F882F90E0822B932B92
:1012C000926890931102809310028AEA98EB9093AF
:1012D0001302809312028AEA98EB9093150280938E
:1012E000140286EF91E0DF91CF910895CF93DF93C1
:1012F00000D00F92CDB7DEB79B838A838A819B8112
:1013000090931B0280931A02198289818093F401C1
:1013100080911A0290911B02FC0186899789909313
:10132000F2018093F10180911A0290911B02FC015D
:10133000808D8093CA0020911A0230911B028DB7D4
:101340009EB746970FB6F8949EBF0FBE8DBF8DB760
:101350009EB7019646E1F90100802F5F3F4FFC01E7
:101360000082019641504423B1F70E94D5062DB763
:101370003EB72A5E3F4F0FB6F8943EBF0FBE2DBF5B
:101380009C0180E1B9010E94B6060F900F900F906A
:10139000DF91CF9108951F93CF93DF9300D000D0BA
:1013A0000F92CDB7DEB76A837B838C839D831982CE
:1013B00011E06A817B818C819D8120E030E047EDE6
:1013C00053E40E94000E18160CF010E0112311F0E7
:1013D00081E0898311E06A817B818C819D8120E09D
:1013E00030E047E554E40E94000E18160CF010E0BF
:1013F000112311F082E0898311E06A817B818C8165
:101400009D8120E030E041E654E40E94000E181671
:101410000CF010E0112311F083E0898389810F9093
:101420000F900F900F900F90DF91CF911F91089523
:101430001F93CF93DF9300D000D000D0CDB7DEB79D
:101440006B837C838D839E836B817C818D819E8168
:1014500020E030E04BE953E40E941E0DDC01CB019B
:10146000BC01CD0120E030E048EC53E40E94040EC2
:10147000DC01CB01BC01CD010E94830DDC01CB015D
:101480009A83898311E06B817C818D819E8120E02C
:1014900030E047ED53E40E94000E18160CF010E007
:1014A0001123F1F06B817C818D819E8120E030E001
:1014B00047ED53E40E941E0DDC01CB01BC01CD01C0
:1014C00020E030E048EC53E40E94040EDC01CB0144
:1014D000BC01CD010E94830DDC01CB019A8389837D
:1014E00011E06B817C818D819E8120E030E047E5B9
:1014F00054E40E94000E18160CF010E01123F1F0D5
:101500006B817C818D819E8120E030E047E554E451
:101510000E941E0DDC01CB01BC01CD0120E030E0BA
:1015200048E453E40E94040EDC01CB01BC01CD0170
:101530000E94830DDC01CB019A83898311E06B81CA
:101540007C818D819E8120E030E041E654E40E9460
:10155000000E18160CF010E01123F1F06B817C8165
:101560008D819E8120E030E041E654E40E941E0D12
:10157000DC01CB01BC01CD0125E535E545E053E4B7
:101580000E94040EDC01CB01BC01CD010E94830D41
:10159000DC01CB019A83898389819A8126960FB6D3
:1015A000F894DEBF0FBECDBFDF91CF911F9108959C
:1015B000CF93DF9300D000D0CDB7DEB769837A83B5
:1015C0008B839C8389819A81AB81BC818C372AE093
:1015D000920720E0A20720E0B20780F08BEF92E4B0
:1015E000A5E0B0E029813A814B815C81BC01CD014D
:1015F0000E948B0EDA01C90181500FC08FE598EA75
:10160000A0E0B0E029813A814B815C81BC01CD0131
:101610000E948B0EDA01C90181500F900F900F903C
:101620000F90DF91CF910895CF93DF9300D000D03A
:10163000CDB7DEB769837A838B839C8389819A8156
:10164000AB81BC818C372AE0920720E0A20720E022
:10165000B20718F080E090E002C081E090E00F90C7
:101660000F900F900F90DF91CF910895CF93DF935C
:1016700000D000D0CDB7DEB769837A838B839C839B
:1016800089819A81AB81BC81813022EC920721E073
:10169000A20720E0B20710F081E01DC089819A8185
:1016A000AB81BC81813021EE920720E0A20720E0CF
:1016B000B20710F084E00FC089819A81AB81BC81B0
:1016C00081302BE4920720E0A20720E0B20710F05F
:1016D00085E001C086E00F900F900F900F90DF9192
:1016E000CF910895CF93DF9300D000D0CDB7DEB770
:1016F00069837A838B839C8389819A81AB81BC8146
:10170000813021EE920720E0A20720E0B20718F016
:1017100083E090E002C082E090E00F900F900F9085
:101720000F90DF91CF910895CF93DF9300D000D039
:10173000CDB7DEB769837A838B839C8389819A8155
:10174000AB81BC81813022EC920721E0A20720E02E
:10175000B20710F08FE01DC089819A81AB81BC81F6
:10176000813021EE920720E0A20720E0B20710F0BE
:1017700087E00FC089819A81AB81BC8181302BE4E5
:10178000920720E0A20720E0B20710F085E001C038
:1017900082E00F900F900F900F90DF91CF910895FE
:1017A000AF92BF92CF92DF92EF920F931F93CF939E
:1017B000DF93CDB7DEB7A5970FB6F894DEBF0FBEA7
:1017C000CDBF988F8F8B498F5A8F6B8F7C8F0D8FEA
:1017D0001E8F2F8F38A3E9A2DBA2CAA2BDA2ACA2A2
:1017E000CE01019624EB30E046E1F90100802F5F45
:1017F0003F4FFC010082019641504423B1F7898D8F
:101800009A8DAB8DBC8DBC01CD010E94CB09898323
:101810008CA1817081708295807F9F859F7E892BAE
:101820008F878A8181608A838A8182608A838AA184
:1018300081708170880F880F9C819B7F892B8C839E
:1018400087E08B838E8581608E878E85877C806123
:101850008E87898D9A8DAB8DBC8DBC01CD010E9488
:10186000180A9F70282F21702795222727953E81DF
:101870003F77232B2E83282F26952F773F81307893
:10188000232B2F83292F21702795222727953F81EE
:101890003F77232B2F83892F8695877087709885B4
:1018A000987F892B88878C8188608C838D8D9E8D15
:1018B000AF8DB8A1BC01CD010E94360B8770877037
:1018C0009C85987F892B8C878D8D9E8DAF8DB8A13F
:1018D000BC01CD010E94140B81708170880F880FAC
:1018E000880F9885977F892B88878D8D9E8DAF8DEA
:1018F000B8A1BC01CD010E94D80A8F77982F9F70A4
:101900009295907F28852F70922B988782958F7063
:10191000877087709985987F892B89878D8D9E8D9B
:10192000AF8DB8A1BC01CD010E94720B8370837092
:101930008295880F807E9D819F79892B8D838D8DE7
:101940009E8DAF8DB8A1BC01CD010E94940B8F700C
:101950008F709B89907F892B8B8B89A18770877073
:101960008295807F9B899F78892B8B8B8CA181703E
:1019700081709C819E7F892B8C838C8182608C837B
:101980008F89988D9E012F5F3F4F46E1F9010080BE
:101990002F5F3F4FFC010082019641504423B1F775
:1019A0008F89988DA5960FB6F894DEBF0FBECDBF78
:1019B000DF91CF911F910F91EF90DF90CF90BF906B
:1019C000AF900895CF93DF93CDB7DEB78EE290E06E
:1019D000FC01108287E390E027E330E0F9012081E9
:1019E0002860FC01208388E390E028E330E0F901DF
:1019F00020812860FC0120830E946B0385E590E034
:101A000025E530E0F90120812C7FFC0120837894CA
:101A1000DF91CF910895CF93DF93CDB7DEB782E00A
:101A20008093E9008BE590E02BE530E0F90120811F
:101A30002064FC012083DF91CF9108955058BB278B
:101A4000AA270ED0A3C094D030F099D020F031F462
:101A50009F3F11F41EF489C00EF4E095E7FB7FC0B0
:101A6000E92FA5D080F3BA1762077307840795079B
:101A700018F071F49EF5BDC00EF4E0950B2EBA2F50
:101A8000A02D0B01B90190010C01CA01A001112484
:101A9000FF27591B99F0593F50F4503E68F11A1630
:101AA000F040A22F232F342F4427585FF3CF4695C1
:101AB00037952795A795F0405395C9F77EF41F16E3
:101AC000BA0B620B730B840BBAF09150A1F0FF0FAD
:101AD000BB1F661F771F881FC2F70EC0BA0F621F99
:101AE000731F841F48F4879577956795B795F79589
:101AF0009E3F08F0B3CF9395880F08F09927EE0F1B
:101B00009795879508955BD088F09F5790F0B92FEF
:101B10009927B751A0F0D1F0660F771F881F991F42
:101B20001AF0BA95C9F712C0B13081F062D0B1E0B5
:101B300008955FC0672F782F8827B85F39F0B93FC5
:101B4000CCF3869577956795B395D9F73EF4909544
:101B50008095709561957F4F8F4F9F4F089597F9AE
:101B60009F6780E870E060E008959FEF80EC089543
:101B700000240A941616170618060906089500246C
:101B80000A9412161306140605060895092E0394E6
:101B9000000C11F4882352F0BB0F40F4BF2B11F45A
:101BA00060FF04C06F5F7F4F8F4F9F4F089557FDB9
:101BB0009058440F551F59F05F3F71F04795880FBB
:101BC00097FB991F61F09F3F79F087950895121652
:101BD00013061406551FF2CF4695F1DF08C01616FE
:101BE00017061806991FF1CF8695710561050894AF
:101BF0000895E894BB2766277727CB0197F90895C6
:101C000066D008F48FEF08950BD0C0CFB1DF28F075
:101C1000B6DF18F0952309F0A2CFA7CF1124EACFA1
:101C2000C6DFA0F3959FD1F3950F50E0551F629F3B
:101C3000F001729FBB27F00DB11D639FAA27F00D25
:101C4000B11DAA1F649F6627B00DA11D661F829F4C
:101C50002227B00DA11D621F739FB00DA11D621F31
:101C6000839FA00D611D221F749F3327A00D611D4E
:101C7000231F849F600D211D822F762F6A2F112430
:101C80009F5750408AF0E1F088234AF0EE0FFF1F83
:101C9000BB1F661F771F881F91505040A9F79E3FBA
:101CA000510570F05CCFA6CF5F3FECF3983EDCF3BC
:101CB000869577956795B795F795E7959F5FC1F7F7
:101CC000FE2B880F911D9695879597F90895990F8A
:101CD0000008550FAA0BE0E8FEEF16161706E807F6
:101CE000F907C0F012161306E407F50798F0621B17
:101CF000730B840B950B39F40A2661F0232B242BEC
:101D0000252B21F408950A2609F4A140A6958FEF0A
:101D1000811D811D0895A1E21A2EAA1BBB1BFD0186
:101D20000DC0AA1FBB1FEE1FFF1FA217B307E407BA
:101D3000F50720F0A21BB30BE40BF50B661F771F12
:101D4000881F991F1A9469F76095709580959095F2
:101D50009B01AC01BD01CF010895FB0151915523B9
:101D6000A9F0BF01DC014D9145174111E1F759F48C
:101D7000CD010190002049F04D9140154111C9F36A
:101D8000FB014111EFCF81E090E001970895F894B5
:021D9000FFCF83
:101D920080CA82CA000008107700403302000004A3
:101DA200D42002033B000096C101AAAAAA2DD42086
:101DB2004D4F20435120436843680000AAAAAA2D30
:101DC200D4204D4F2041434B2043684368000043D9
:101DD2005120436843680041434B204368436800F5
:101DE20080CA82CA00000810770040330200000453
:0A1DF200D42002033B000096C1015B
:00000001FF
