:1000000014C0D3C02DC02CC02BC02AC029C028C00A
:1000100027C026C025C024C023C022C021C020C0C4
:100020001FC01EC01DC00D0A000011241FBECFE559
:10003000D4E0DEBFCDBF10E0A0E6B0E0ECE4F5E038
:1000400002C005900D92AC36B107D9F710E0ACE6CE
:10005000B0E001C01D92A539B107E1F702D074C22A
:10006000CFCFEF92FF920F931F93DF93CF930F9217
:10007000CDB7DEB719829ED18F9A979A84EC99E01A
:1000800020E931E0F9013197F1F70197D9F784ECD4
:1000900099E020E931E0F9013197F1F70197D9F7BB
:1000A00084EC99E020E931E0F9013197F1F701970B
:1000B000D9F73AD184EC99E020E931E0F9013197A0
:1000C000F1F70197D9F78AE090E066D0789480E65E
:1000D00090E07ED183E690E07BD1B998EE24FF24B6
:1000E0008E010F5F1F4FB19B03C0E114F10479F043
:1000F000B19B0AC081E063E2A801FBD089818F5FD8
:100100008983EE24FF2403C081E0E82EF12CB3D0D4
:1001100085B7806885BF889585B78F7785BFE3CF22
:10012000C2989FB9779BFECF8FB9779BFECFC29ABB
:100130000895C2989FB9779BFECF9FB1592F40E099
:100140008FB9779BFECF2FB1C29A30E0242B352B8D
:10015000C9010895C2981FB8779BFECFC29A8FB18C
:100160000895C2988FB9779BFECF6FB9779BFECF6A
:10017000C29A0895C29880EB8FB9779BFECF1FB8C3
:10018000779BFECFC29A8FB10895BB9ABD9ABA9A57
:10019000BC9881E58DB90895906EC2DF81E092E848
:1001A000BFDF83E092E8BCDF089578941F920F923E
:1001B0000FB60F9211241F932F933F934F935F938A
:1001C0006F937F938F939F93AF93BF93EF93FF931F
:1001D0008BB78F7B8BBFBEDF182F84FF0CC02091A5
:1001E000700030917100C9018D7F9ADF809170009D
:1001F0009091710095DF17FF29C080916C008230CB
:1002000019F580916F0090916E00891758F4E82FCE
:10021000F0E0EE58FF4F60818F5F80936F0088EBB6
:10022000A0DF14C010926D00809170009091710059
:100230008D7F76DF83E092E8909371008093700069
:100240006FDF88EB6AEA8DDF10926C008BB78064F9
:100250008BBFFF91EF91BF91AF919F918F917F9154
:100260006F915F914F913F912F911F910F900FBE12
:100270000F901F90189580916C00882331F5809124
:100280006D00813011F58BB78F7B8BBF83E092E8D7
:1002900047DF809174008A5F80936E0010926F0038
:1002A00082E080936C0083E292E8909371008093E7
:1002B00070008AEA98EB34DF8AEA98EB31DF83E258
:1002C00092E82EDF8BB780648BBF089590916D000C
:1002D000992369F460937400809375008627809554
:1002E0008093760081E080936D0080E8089583E03C
:1002F00008950F931F93182F062F8F3178F4809154
:100300006D00882369F427E730E0C901BA01412F65
:1003100050E0CED0802F612FD9DF03C082E001C032
:1003200083E01F910F910895C29ABA9A2EDF87ED4C
:1003300090E8F6DE83E092E8F3DE80EB94EAF0DE0C
:1003400083E296ECEDDE8CE294E9EADE8BEA92EC55
:10035000E7DE81E89AECE4DE87EF94ECE1DE80E70B
:1003600098E9DEDE80E098ECDBDE80E090EED8DE1F
:100370008DE28093720084ED8093730083E092E8B5
:10038000CFDE83E092E8909371008093700085B790
:10039000826085BF80E090E0CCDE8AB780648ABF4F
:1003A00081E89AECBDDE83E89AECBADE8BB7806414
:1003B0008BBF0895909A539A80B5866880BD549AF1
:1003C00010BC83E389B908955D9BFECF8CB9089575
:1003D000EF92FF92CF93DF93E82EE7017E01F92E93
:1003E000E70101C0F1DF89918823E1F7DF91CF9127
:1003F000FF90EF900895CF93DF93EC0102C0E4DF0C
:100400002196FE0184918823D1F7DF91CF91089541
:10041000BF92CF92DF92EF92FF920F931F93DF93E1
:10042000CF9300D00F92CDB7DEB76C01062F172FF8
:10043000BB247E010894E11CF11C1DC0F6018191D2
:100440006F01992787FD9095B70140E150E039D0C1
:100450008A81882311F480E2B7DFC701B9DF80E227
:10046000B3DFB394FB2DF03121F486E290E0C3DFDB
:10047000BB24015010400115110501F70F900F909A
:100480000F90CF91DF911F910F91FF90EF90DF9030
:10049000CF90BF9008955F9BFECF8CB108955F9B76
:1004A00005C02CB1FC01208381E0089580E008950F
:1004B000FB01DC0102C001900D9241505040D8F781
:1004C0000895FB019F01E8944230BCF04532ACF442
:1004D0004A3029F497FB1EF4909581959F4F642F25
:1004E00077271ED0805D8A330CF0895D8193CB0124
:1004F0000097A9F716F45DE251931082C90100C07C
:10050000DC01FC01672F71917723E1F7329704C07A
:100510007C916D9370836291AE17BF07C8F3089505
:10052000AA1BBB1B51E107C0AA1FBB1FA617B70719
:1005300010F0A61BB70B881F991F5A95A9F7809535
:0C0540009095BC01CD010895F894FFCF08
:0C054C000D0A0048656C6C6F0D0A000081
:00000001FF
